:1004C500EF7802CEC313CE13D8F9FFEF1FAC067039
:0A04D500011E4C6004000080F222BA
:1004DF00AB07AA06EB1BAE0270011A4E60097FE84C
:0804EF007E031204C580ED221A
:100534003F065B4F666D7D077F6F777C395E79710F
:040298008E208F2104
:10029C0078227C007D007BFF7A0579347E007F100C
:1002AC001200D3C3E520648094805005852B3280E6
:1002BC0024D3E5219409E52064809480401CAE2071
:1002CC00AF217C007D0A1200F98C208D217422252F
:1002DC0021F8E6F532433280800874222521F8E6B5
:1002EC00F532E4FFC2B1E5323392B0E53225E0F5E8
:0D02FC0032D2B10FBF08EDC2B20000D2B285
:0103090022D1
:10047E00D2D730D724C2B47F1C7E021204C5D2B4A8
:10048E007F3C7E001204C5A2B47FF07E001204C52C
:0A049E007FB47E001204C580D9224D
:10041D00E4F522F523F521E522C313F522E5231397
:10042D00F523C2B400D2B40030B4034323807F3C23
:10043D007E001204C50521E521C3940840D9AF23E0
:01044D00228C
:02044E008F21FC
:10045000E4F522E5215401F523E521C313F521C27A
:10046000B400E52324FF92B47F3C7E001204C5D281
:0D047000B4000522C3E5226480948840D6C4
:01047D00225C
:1003A00012047E7FCC12044E7F4412044E30B4FD02
:1003B00012047E7FCC12044E7FBE12044E12041D26
:1003C0008F2012041D7E00EFC4F8540FC868FFEEA2
:0E03D000C454F048FEE520C4540FF520420747
:0103DE0022FC
:1004A800011D05011C0A14080006000600060006C6
:0C04B80000060006000600060006000614
:10030A00C2B0D2B4C2B31203DFE51E75F00A848507
:10031A00F01E1203A0E51E25E02408F8A60608A68A
:10032A0007E51E25E02408F8E6FE08E6FF12029813
:10033A00E4F51F120210051FE51FC3940A40F412C8
:0D034A000357051E7FF47E011204DF80BC06
:1003570020B321E4FFE51DFDEF25E02408F8E6FAC8
:1003670008E6D39D7480F86A9850040FBF0AE6BF69
:100377000A02D2B330B321E4FFE51CFDEF25E024E8
:1003870008F8E6FA08E6C39D7480F86A9840040FF7
:08039700BF0AE6BF0A02C2B36F
:01039F00223B
:1004F700E475C78275C501F5C4F5C375C65A75C6D7
:04050700A500AFC2DA
:01050B0022CD
:10050C00E475C78275C502F5C4F5C38FC275C65AAA
:04051C0075C6A500FB
:0105200022B8
:10052100E475C78275C503F5C4F5C375C65A75C6AA
:02053100A50023
:0105330022A5
:1003DF00E4F5201204F78F1DE51DC4540FF51C53CF
:1003EF001D0FD3951D500E751C0A751D0512052185
:1003FF007FA512050CE4FFE51D251CC313FDEF259A
:0D040F00E02408F8760008A6050FBF0AEAF1
:01041C0022BD
:10021000D2B4D2B57F147E001204DF20B4367F142E
:100220007E001204DF20B40DAF1D7E001202987F05
:10023000207E03801A20B41C151DAF1D7E00120203
:1002400098E51DC394005003751D0F7F907E011229
:1002500004DF80E120B5367F147E001204DF20B574
:100260000DAF1C7E001202987F207E03801A20B5FD
:100270001C051CAF1C7E00120298E51CD3940F4095
:1002800003E4F51C7FF47E011204DF80E1E51CC469
:0802900054F0251DFF02050CCE
:0300000002018476
:0C018400787FE4F6D8FD7581320201CBD3
:10000300E709F608DFFA8046E709F208DFFA803EDF
:1000130088828C83E709F0A3DFFA8032E309F608CC
:10002300DFFA8078E309F208DFFA807088828C8334
:10003300E309F0A3DFFA806489828A83E0A3F608E8
:10004300DFFA805889828A83E0A3F208DFFA804CC2
:1000530080D280FA80C680D4806980F28033801099
:1000630080A680EA809A80A880DA80E280CA803302
:1000730089828A83ECFAE493A3C8C582C8CCC5837A
:10008300CCF0A3C8C582C8CCC583CCDFE9DEE7804A
:100093000D89828A83E493A3F608DFF9ECFAA9F0C9
:1000A300EDFB2289828A83ECFAE0A3C8C582C8CC1F
:1000B300C583CCF0A3C8C582C8CCC583CCDFEADE38
:1000C300E880DB89828A83E493A3F208DFF980CC9A
:1000D30088F0EF60010E4E60C388F0ED2402B40493
:1000E3000050B9F582EB2402B4040050AF2323453A
:0600F3008223900053730C
:1000F900C2D5EC30E709B2D5E4C39DFDE49CFCEE22
:1001090030E715B2D5E4C39FFFE49EFE12012FC369
:10011900E49DFDE49CFC800312012F30D507C3E464
:060129009FFFE49EFE2290
:1001900002030AE493A3F8E493A34003F68001F278
:1001A00008DFF48029E493A3F85407240CC8C33370
:1001B000C4540F4420C8834004F456800146F6DF3F
:1001C000E4800B01020408102040809004A8E47E23
:1001D000019360BCA3FF543F30E509541FFEE49334
:1001E000A360010ECF54C025E060A840B8E493A3FB
:1001F000FAE493A3F8E493A3C8C582C8CAC583CA26
:10020000F0A3C8C582C8CAC583CADFE9DEE780BEDD
:0104C4000037
:10012F00BC000BBE0029EF8DF084FFADF022E4CCB4
:10013F00F875F008EF2FFFEE33FEEC33FCEE9DEC7D
:10014F00984005FCEE9DFE0FD5F0E9E4CEFD22EDC3
:10015F00F8F5F0EE8420D21CFEADF075F008EF2F0D
:10016F00FFED33FD4007985006D5F0F222C398FDFE
:05017F000FD5F0EA229B
:00000001FF
