:1005DC00EF7802CEC313CE13D8F9FFEF1FAC067021
:0A05EC00011E4C6004000080F222A2
:1005C100AB07AA0675C135EB1BAE0270011A4E606E
:0B05D100097FE87E031205DC80ED22AC
:100610003F065B4F666D7D077F6F777C395E797132
:04031F008E0F8F109E
:1003230078117C007D007BFF7A0679107E007F10B8
:100333001200D3C3E50F648094805005851A218091
:1003430024D3E5109409E50F64809480401CAE0F1C
:10035300AF107C007D0A1200F98C0F8D10741125EB
:1003630010F8E6F521432180800874112510F8E682
:10037300F521E4FFC2B1E5213392B0E52125E0F593
:0D03830021D2B10FBF08EDC2B20000D2B20E
:01039000224A
:10053900D2D730D724C2B47F1C7E021205DCD2B4D4
:100549007F3C7E001205DCA2B47FF07E001205DC40
:0A0559007FB47E001205DC80D92279
:1004D800E4F50CF50DF50BE50CC313F50CE50D1360
:1004E800F50DC2B400D2B40030B403430D807F3C94
:1004F8007E001205DC050BE50BC3940840D9AF0D4F
:0105080022D0
:020509008F0B56
:10050B00E4F50CE50B5401F50DE50BC313F50BC22C
:10051B00B400E50D24FF92B47F3C7E001205DCD2C3
:0D052B00B400050CC3E50C6480948840D634
:0105380022A0
:100499001205397FCC1205097F4412050930B4FDD4
:1004A9001205397FCC1205097FBE1205091204D83D
:1004B9008F0A1204D87E00EFC4F8540FC868FFEE03
:0E04C900C454F048FEE50AC4540FF50A420779
:0104D7002202
:100585001422000600060006000600060006000606
:060595000006000600064E
:1003F90075C135C2B0D2B4C2B312039175C135E526
:100409000875F00A8485F008120499E50825E024A6
:1004190022F8A60608A607E50825E02422F8E6FE44
:1004290008E6FF12031FE4F5091201840509E5092D
:10043900C3940A40F412044C05087FF47E011205A6
:03044900C180B9B6
:10044C0020B323E4FFEF25E02422F8E6FC08E6D3F2
:10045C009539E5386480F8EC64809850040FBF0A35
:10046C00E4BF0A02D2B330B323E4FFEF25E0242229
:10047C00F8E6FC08E6C39537E5366480F8EC648052
:0C048C009840040FBF0AE4BF0A02C2B38C
:010498002241
:08059B00023800050236000AD7
:0D062000E4F5C7F5C5F5C675C380F5C42225
:1005A40075C78275C5018FC48EC375C65A75C6A535
:0C05B4007F287E001205DCAFC21206207A
:0105C0002218
:06056300AD377F017E00B0
:1005690075C78275C5028FC48EC38DC275C65A758B
:0C057900C6A57F287E001205DC020620CB
:1005F60075C78275C5038FC48EC375C65A75C6A5E1
:0A0606007F287E001205DC020620AA
:10039100E4FFFE1205A47538008F397F017E00123B
:1003A10005A47536008F37D3E5379539E538648074
:1003B100F8E536648098501D75360075370A753832
:1003C10000753905E4FFFE1205F6AD39E4FFFE12B2
:1003D1000569120563E4FBE5392537FFE538353654
:1003E100FE7C007D021200F9EB25E02422F8A6062E
:0703F10008A6070BBB0AE0A0
:0103F80022E2
:10018400E4F50E85380A85390B85360C85370DC2A2
:10019400B57F14FE1205C130B54BC2B57F147E0085
:1001A4001205C130B510C2B5AF39AE3812031F7F86
:1001B400DC7E051205C130B52CC2B5E539153970A0
:1001C400021538AF39AE3812031FC3E53864809482
:1001D40080500675380075391D7F207E031205C1D5
:1001E400750E0180D1D2B57F147E001205C120B5F1
:1001F4004DD2B57F147E001205C120B510D2B5AF23
:1002040037AE3612031F7FDC7E051205C120B52EE2
:10021400D2B50537E53770020536FFAE3612031F37
:10022400D3E537941DE536648094804005E4F536C3
:10023400F5377F207E031205C1750E0180CFE50ED0
:10024400604CE4F50EE539650B7004E538650A6029
:1002540011E4FFFE1205F6AD39E4FFFE1205691242
:1002640005637F017E001205C1E537650D7004E565
:1002740036650C60127F017E001205F6AD39E4FF8D
:0E028400FE1205691205637F017E001205C19E
:010292002249
:0300000002029366
:0C029300787FE4F6D8FD7581390202DAAC
:10000300E709F608DFFA8046E709F208DFFA803EDF
:1000130088828C83E709F0A3DFFA8032E309F608CC
:10002300DFFA8078E309F208DFFA807088828C8334
:10003300E309F0A3DFFA806489828A83E0A3F608E8
:10004300DFFA805889828A83E0A3F208DFFA804CC2
:1000530080D280FA80C680D4806980F28033801099
:1000630080A680EA809A80A880DA80E280CA803302
:1000730089828A83ECFAE493A3C8C582C8CCC5837A
:10008300CCF0A3C8C582C8CCC583CCDFE9DEE7804A
:100093000D89828A83E493A3F608DFF9ECFAA9F0C9
:1000A300EDFB2289828A83ECFAE0A3C8C582C8CC1F
:1000B300C583CCF0A3C8C582C8CCC583CCDFEADE38
:1000C300E880DB89828A83E493A3F208DFF980CC9A
:1000D30088F0EF60010E4E60C388F0ED2402B40493
:1000E3000050B9F582EB2402B4040050AF2323453A
:0600F3008223900053730C
:1000F900C2D5EC30E709B2D5E4C39DFDE49CFCEE22
:1001090030E715B2D5E4C39FFFE49EFE12012FC369
:10011900E49DFDE49CFC800312012F30D507C3E464
:060129009FFFE49EFE2290
:10029F000203F9E493A3F8E493A34003F68001F279
:1002AF0008DFF48029E493A3F85407240CC8C33360
:1002BF00C4540F4420C8834004F456800146F6DF2F
:1002CF00E4800B0102040810204080900585E47E35
:1002DF00019360BCA3FF543F30E509541FFEE49324
:1002EF00A360010ECF54C025E060A840B8E493A3EB
:1002FF00FAE493A3F8E493A3C8C582C8CAC583CA16
:10030F00F0A3C8C582C8CAC583CADFE9DEE780BECD
:0105A3000057
:10012F00BC000BBE0029EF8DF084FFADF022E4CCB4
:10013F00F875F008EF2FFFEE33FEEC33FCEE9DEC7D
:10014F00984005FCEE9DFE0FD5F0E9E4CEFD22EDC3
:10015F00F8F5F0EE8420D21CFEADF075F008EF2F0D
:10016F00FFED33FD4007985006D5F0F222C398FDFE
:05017F000FD5F0EA229B
:00000001FF
